:020000040800F2
:100000002804002051190008A5190008A9190008A2
:10001000AD190008B1190008B5190008000000006A
:10002000000000000000000000000000B9190008F6
:10003000BD19000800000000C1190008C51900081A
:10004000C9190008CD190008D1190008D5190008F0
:10005000D9190008DD190008E1190008E5190008A0
:10006000E9190008ED190008F1190008F519000850
:10007000F9190008FD190008011A0008051A0008FE
:10008000091A00080D1A0008111A0008151A0008AC
:10009000191A00081D1A0008211A0008251A00085C
:1000A000291A00082D1A0008311A0008351A00080C
:1000B000391A00083D1A0008411A0008451A0008BC
:1000C000491A00084D1A0008511A0008551A00086C
:1000D000591A00085D1A0008611A0008651A00081C
:1000E000691A00086D1A0008711A0008751A0008CC
:1000F000791A00087D1A0008811A0008851A00087C
:10010000891A00088D1A0008911A0008951A00082B
:10011000991A00089D1A0008A11A0008A51A0008DB
:10012000A91A0008AD1A0008B11A0008B51A00088B
:10013000B91A0008BD1A0008C11A0008C51A00083B
:10014000C91A0008CD1A0008D11A0008D51A0008EB
:10015000D91A0008DD1A0008E11A0008E51A00089B
:10016000E91A0008ED1A0008F11A0008F51A00084B
:10017000F91A0008FD1A0008011B0008051B0008F9
:10018000091B00080D1B00082DE9F84F84B000F092
:1001900021FA00F089FB0A2000F050FB0825172601
:1001A00000F059FADFF820462068000A00022060BB
:1001B000206850F001002060FF2000F069FB06235A
:1001C0000622310089B2280080B200F033FC57E0EB
:1001D000039A3032D2B202210A2000F05BFC029A6C
:1001E0003032D2B207210A2000F054FC019A30329A
:1001F000D2B20C210A2000F04DFC009A3032D2B26B
:1002000011210A2000F046FC083D122095FBF0F277
:100210003032D2B21621042000F03CFCBAF1170AA9
:1002200012209AFBF0F23032D2B21821042000F0F2
:1002300031FC4FF4FA7000F001FB00F0B7FA4FF414
:10024000FA7000F0FBFA00F0B1FA4FF4FA7000F027
:10025000F5FA00F0ABFA00F081FAB0F57E4FFAD172
:1002600008251726206830F0FE00206000F0F3F922
:1002700006230622310089B2280080B200F0DAFBA2
:1002800008255FF0170A002003900020029000204C
:100290000190002000905FF000085FF00009002648
:1002A000002700F05BFAB0F5FE4F03D0B0F57E4FAB
:1002B000D6D0E5E730221621042000F0EBFB3022F7
:1002C0001821042000F0E6FB00F070FA206850F0DE
:1002D0008000206007E000F069FA4FF4FA7000F047
:1002E000ADFA00F063FA502D03D1BAF15F0F3FF47D
:1002F0006FAF00F033FAB0F57E4F00F08580039ABF
:100300003032D2B202210A2000F0C4FB029A30320D
:10031000D2B207210A2000F0BDFB019A3032D2B2DE
:100320000C210A2000F0B6FB009A3032D2B2112123
:100330000A2000F0AFFBB5F10800122190FBF1F2AA
:100340003032D2B21621042000F0A4FBBAF117001B
:10035000122190FBF1F23032D2B21821042000F0C9
:1003600099FB00F0D3F9B0F5F07F00F0E180B0F533
:10037000387F07D0B0F5587F00F08C80B0F5687FEB
:1003800043D0B0E7206830F07E002060502D80F22E
:100390001881206850F0100020600098401C0090E8
:1003A000761E7F1C00F002FA7FF07F4000F070FAAA
:1003B000062306225046010089B2280080B200F0D0
:1003C00039FB5FF0120B48220BFB09F019300100DA
:1003D00089B20A2000F0F5FA482219210BFB07FB2D
:1003E000BBF1080B584680B200F008FB1235FF2025
:1003F00000F04EFA062306225046010089B228007A
:1004000080B200F017FBE4E02AE7206830F07E00BD
:100410002060BAF1180FFFF65EAF206850F00200BE
:1004200020600398401C039018F10108B9F10109FC
:1004300000F0BCF97FF07F4000F02AFA0623062284
:100440005046010089B2280080B200F0F3FA482239
:100450007FF0110000FB08F02B30010089B20A2068
:1004600000F0AFFA48221921122000FB07F00A30F1
:1004700080B200F0C3FABAF1120AFF2000F008FAC5
:10048000062306225046010089B2280080B200F0FF
:10049000D1FA28E7206830F07E002060BAF15F0FC3
:1004A0003DDA206850F0040020600298401C029061
:1004B00019F10109B8F1010800F078F97FF07F40E7
:1004C00000F0E6F9062306225046010089B2280012
:1004D00080B200F0AFFA5FF0120B48220BFB09F07C
:1004E000C01D010089B20A2000F06BFA48221921D0
:1004F0000BFB07FB1BF10A0B584680B200F07EFA9B
:100500001AF1120AFF2000F0C3F906230622504612
:10051000010089B2280080B200F08CFA07E000F0F8
:1005200045F94FF4FA7000F089F900F03FF9DAE686
:10053000206830F07E002060092D39DB206850F003
:10054000080020600198401C0190761C7F1E00F07E
:100550002DF97FF07F4000F09BF9062306225046DC
:10056000010089B2280080B200F064FA482212200B
:1005700000FB09F01930010089B20A2000F021FACD
:10058000482219217FF0110000FB06F01C3080B2D8
:1005900000F034FA123DFF2000F07AF9062306221B
:1005A0005046010089B2280080B200F043FA07E00B
:1005B00000F0FCF84FF4FA7000F040F900F0F6F8A3
:1005C00091E600F0F3F84FF4FA7000F037F900F01C
:1005D000EDF888E67D48016851F04001016045F280
:1005E00055517B4A13680B4313607A4A13681B0A00
:1005F0001B021360784A136819431160016851F0B7
:100600008001016075490A6892B20A6074490A68FB
:1006100092B20A60016851F02001016071490A68D4
:1006200052F480220A6070490A6832F400720A604B
:100630006E490A6852F480220A60016851F48071A0
:1006400001606B486B490A6802400A606A490A689F
:1006500010400860704738B57FF07F44200000F0FC
:1006600009FA664800F018F9654800F005F900201D
:1006700000F006F9634A0021002000F022FA200071
:1006800000F0FAF8604A0021012000F01AFA5F4AEF
:100690000B21012000F015FA5D4A0021092000F02D
:1006A00010FA5C4A0B21092000F00BFA5A4A00218B
:1006B0000A2000F006FA002000F0E6F8574A0E2162
:1006C000022000F0FEF9564A0E21032000F0F9F94D
:1006D000544A0E21042000F0F4F9002413E01225FE
:1006E000482205FB04F01930010089B20A2000F00D
:1006F00068F94822192105FB04F50A35280080B263
:1007000000F07CF9641C052CE9DB31BD38B54648A6
:10071000046814F47874200080B2B0F5787F0ED1AC
:10072000424D2878002802D1200080B215E00A202E
:1007300000F084F800202870200080B20DE03B49D2
:100740000878002802D04FF4787006E00120087085
:100750000A2000F073F8200080B232BD38B534486A
:10076000046814F47F44200080B2B0F57F4F0ED1AE
:10077000304D2878002802D1200080B215E00A20F0
:1007800000F05CF800202870200080B20DE02949BC
:100790000878002802D04FF47F4006E0012008705E
:1007A0000A2000F04BF8200080B232BD10B5224C78
:1007B000206850F4007020601E2000F03FF8206890
:1007C00030F40070206010BD141802403038024030
:1007D000001802400418024008180240001C0240A1
:1007E0000C1C024000140240041402400814024091
:1007F000FF03F0FF002002400C2002400000002018
:1008000000FFFF0060190008841900088C19000817
:10081000941900089C1900082C1900086C1900088C
:10082000781900084019000810200240200000201C
:10083000101C0240210000201414024038B50400AE
:10084000002504E04FF47A7000F008F86D1C2800D1
:10085000210080B289B28842F4D331BD81B080B228
:1008600011214843009002E00098401E009000983B
:100870000028F9D101B07047DFF800120860704716
:10088000DFF8FC1108607047DFF8F8110860704766
:10089000DFF8F41108607047DFF8F0110860704766
:1008A000DFF8E8010068704710B5DFF8D0010021DB
:1008B00001600068DFF8D01108607FF07F44DFF846
:1008C000C00104600068DFF8BC110860DFF8C001F7
:1008D000DFF8B811086000F00FFA200000F0CAF845
:1008E00010BD2DE9F8431500DFF8A0412268928879
:1008F00012FA80F2A02A47DA2268D2885218531ED0
:100900009BB2226892881218521E92B289B280B2AB
:1009100000F0E8FA20688088082802DA20688688D3
:1009200000E0082600F007F9002700E07F1C3800EF
:100930002168098980B2884224D2206801682A008F
:10094000D2B220680089424312FA87F011F8008081
:100950005FF0000905E0DFF82401006800F0F0F81E
:100960000BE0300080B28145E0DA5FEA0860F2D542
:10097000DFF80C01006800F0E3F85FEA480819F1BD
:100980000109EEE700F0EDF8BDE8F183F8B50400E9
:100990000D001600002710E03278290089B23B00D4
:1009A0009BB2DFF8E80000688088434313FA84F0C4
:1009B00080B2FFF796FF761C7F1C30780028EBD1C1
:1009C000F1BD38B50B0014009BB2221892B2190089
:1009D00089B280B200F086FA00F0ADF8002504E09C
:1009E0002848006800F0ACF86D1C2800210080B297
:1009F00089B28842F4D300F0B4F831BD38B51400A0
:100A000063189BB2020092B289B280B200F06AFA17
:100A100000F091F8002504E01A48006800F090F812
:100A20006D1C2000290080B289B28842F4D200F007
:100A300098F831BD70B514001D006A18531E9BB2A2
:100A40002218521E92B289B280B200F04BFA00F026
:100A500072F8002604E00C48006800F071F8761C7B
:100A6000210089B2280080B241438E42F3D300F0C6
:100A700078F870BD80B500F07DFA01BD100000204F
:100A8000180000201C000020140000200C00002092
:100A900000000020F8B504000D001600FFF700FF6D
:100AA0000700FFF7FDFE3200D2B2F988491C14FBA3
:100AB00001F189B2808815FB00F080B2FFF711FFC9
:100AC000F1BDF8B504000D001600FFF7E9FE0700C0
:100AD000FFF7E6FE3200F988491C14FB01F189B2E8
:100AE000808815FB00F080B2FFF750FFF1BD30B5F4
:100AF000016884684218416802EB5103C90703D5B5
:100B00004C4401E0491C08D19A4218BF12F9011B5C
:100B100001D10C3030BD12F8015B002904F8015BF3
:100B2000F0D4491EF7D5EFE75FF0C0410870704779
:100B3000E6490870704780B52C20FFF7F5FF01BD2E
:100B400010B504002000000CC0B2FFF7F1FF200038
:100B5000000AC0B2FFF7ECFF2000C0B2FFF7E8FFC9
:100B600010BD80B50020FFF7DFFF01BD3EB50121BC
:100B7000382000F019FA02208DF8040003208DF8C7
:100B8000050000208DF8060000208DF807004CF2CB
:100B900003000090CE4C6946200000F025FA0C229C
:100BA0000E21200000F068FA0C220F21200000F036
:100BB00063FA0C220021200000F05EFA0C220121D1
:100BC000200000F059FA4FF4F0600090C14D6946E2
:100BD000280000F009FA0C220721280000F04CFA46
:100BE0000C220821280000F047FA0C2209212800D5
:100BF00000F042FA0C220A21280000F03DFAB02051
:100C0000009002208DF8040003208DF805000020DC
:100C10008DF8060000208DF807006946200000F0DE
:100C2000E3F90C220421200000F026FA0C22052111
:100C3000200000F021FA0C220721200000F01CFA0D
:100C400001200090A44C6946200000F0CDF90C2250
:100C50000021200000F010FA8220009001208DF881
:100C6000040002208DF8050000208DF80600002009
:100C70008DF807006946200000F0B6F937BD80B551
:100C800096B00121012000F09DF90320009003207F
:100C90000190032002900020039002200490022083
:100CA00005905FF08050069000200790002008908B
:100CB0000020099000200A9000200B9000200C904A
:100CC00000200D9000200E9000200F904FF48050D7
:100CD0001090002011900020129000201390684680
:100CE00014906846159007A800F0EEF90121002045
:100CF00000F06DFA17B000BD10B5FFF737FFFFF732
:100D0000BEFF764C80202080022020800A2000F048
:100D10007DFA0220724908800A2000F077FA02204A
:100D20002080322000F072FA0120FFF7FDFE322011
:100D300000F06CFA1120FFF7F7FE782000F066FA59
:100D40002620FFF7F1FE0420FFF7F2FEB120FFF7A7
:100D5000EBFE0A20FFF7ECFE1420FFF7E9FEC020AF
:100D6000FFF7E2FE0820FFF7E3FE0020FFF7E0FEBA
:100D7000C120FFF7D9FE0520FFF7DAFEC520FFF7F7
:100D8000D3FE3820FFF7D4FE3520FFF7D1FE3A20FE
:100D9000FFF7CAFE0620FFF7CBFE2A20FFF7C4FEAE
:100DA0000020FFF7C5FE0020FFF7C2FE0020FFF77E
:100DB000BFFE7F20FFF7BCFE2B20FFF7B5FE002013
:100DC000FFF7B6FE0020FFF7B3FE0020FFF7B0FEEE
:100DD0009F20FFF7ADFE3620FFF7A6FE7020FFF73D
:100DE000A7FEB720FFF7A0FE0020FFF7A1FEF2202C
:100DF000FFF79AFE0120FFF79BFEE020FFF794FE2D
:100E00003F20FFF795FE2220FFF792FE2020FFF7FC
:100E10008FFE3020FFF78CFE2920FFF789FE0C2083
:100E2000FFF786FE4E20FFF783FEB720FFF780FE18
:100E30003C20FFF77DFE1920FFF77AFE2220FFF706
:100E400077FE1E20FFF774FE0220FFF771FE0120DF
:100E5000FFF76EFE0020FFF76BFEE120FFF764FE58
:100E60000020FFF765FE1B20FFF762FE1F20FFF743
:100E70005FFE0F20FFF75CFE1620FFF759FE1320E0
:100E8000FFF756FE3120FFF753FE8420FFF750FE98
:100E90004320FFF74DFE0620FFF74AFE1D20FFF717
:100EA00047FE2120FFF744FE3D20FFF741FE3E2094
:100EB000FFF73EFE3F20FFF73BFE2920FFF734FE01
:100EC0000121002000F040F810BD0000010000608A
:100ED000000C0240001002400014024018140240AE
:100EE0001A140240F8B504000D0016001F002A2055
:100EF000FFF71AFE300080B2A12800DBA0263800E0
:100F000080B2812800DB80270020FFF711FE20003F
:100F1000C0B2FFF70DFE0020FFF70AFE3000C0B29E
:100F2000FFF706FE2B20FFF7FFFD0020FFF700FE76
:100F30002800C0B2FFF7FCFD0020FFF7F9FD3800E4
:100F4000C0B2FFF7F5FDF1BD70B504000D0020261D
:100F50003620FFF7E9FDADB2002D01D056F0800636
:100F6000A4B2002C01D056F040063000C0B2FFF70A
:100F7000DFFD70BD70B504008023A0220021002099
:100F8000FFF7B0FFFFF7D7FD002606E02000FFF7D0
:100F9000D7FD6D1CA02DF9D3761C802E01D2002523
:100FA000F8E7FFF7DEFD70BDC9B2002904D00C4997
:100FB0000A681043086004E009490A6832EA000040
:100FC00008607047C9B2002904D006490A68104376
:100FD000086004E003490A6832EA000008607047CC
:100FE0003038024038380240F0B40022002200229B
:100FF00000233DE0012414FA03F20D6815409542E8
:1010000035D1032502685E0015FA06F6B243026088
:1010100006680F795A0097403E4306600A79012A14
:1010200002D00A79022A16D182685E0015FA06F605
:10103000B243826086684F795A0097403E4386608B
:1010400042689C4032EA0404446042688C799C40C7
:10105000A4B222434260C4685A00954034EA0505B0
:10106000C560C468CD795A0095402C43C4605B1CB0
:10107000102BBFD3F0BC704770B400230023D2B252
:101080008B0013F01C039A400B009BB2DB1000EBAB
:1010900083030C00A4B2E41000EB8404246A0F253F
:1010A0008E0016F01C06B540AC431C620B009BB2D0
:1010B000DB1000EB83031B6A1A4389B2C91000EBF3
:1010C0008100026270BC70470021002100215FF0A6
:1010D0002042016852F82130DFF824110B404168AA
:1010E0000B4381680B43C1680B4301690B434169A2
:1010F0000B4381690B43C1690B43016A0B43416A8E
:101100000B43816A0B43C16A0B43016B0B430168BC
:1011100042F821308168082907D1016852F821106E
:1011200051F04001036842F823105FF0204102684B
:1011300001EB82014A6812F04042416B09680A43A0
:10114000416B496852EA0112416B896852EA0122F7
:10115000416BC96852EA0142416B096952EA015286
:10116000416B496952EA0162416B89690A435FF048
:101170002041036801EB83014A60C16AB1F5804FE9
:101180001DD1DFF87820016852F82130DFF87410A3
:101190000B40816B09680B43816B496853EA01136B
:1011A000816B896853EA0123816BC96853EA014363
:1011B000816B89690B43006842F8203006E07FF0BC
:1011C0007041DFF83820006842F820107047C9B23B
:1011D000002908D05FF0204151F8202052F0010290
:1011E00041F8202008E05FF0204252F82030DFF87C
:1011F00018100B4042F8203070470000040100A096
:101200008000F7FF0000F0CFFEFF0F0038B50400AC
:10121000002504E04FF47A7000F008F86D1C2800F7
:10122000210080B289B28842F4D331BD81B080B24E
:1012300006214843009002E00098401E009000986C
:101240000028F9D101B07047000000000000000044
:1012500000000000000000001C1010100000000042
:101260000000F01010101010101010101C000000E2
:10127000101010101010F0000000101010101010BE
:1012800010101010000000000000FC000000000022
:101290000030787878300000FCFCFCCC848484CC6E
:1012A000FCFC00000030484848300000FCFCFCCC4E
:1012B000B4B4B4CCFCFC001C0C0C14103048483006
:1012C0000038444438107C101010002030382C2492
:1012D00024206060000C342C3424242C6C600054D6
:1012E0005428286C28285454101010101010FC108A
:1012F000101000040C1C3C7C3C1C0C04103810101A
:1013000010101010381028282828282828002828ED
:101310003C5454543414141414141010101010109D
:10132000FC000000000000000000FC101010101075
:1013300010101010F01010101038101010101010A5
:1013400010101010101010101C10101000000000D1
:10135000087C0800000000000000207C2000000045
:10136000000000000000000000000000000000007D
:10137000000000000000000000000000000000006D
:10138000000000000000000000000000000000005D
:10139000000010101010101010001010282800006D
:1013A00000000000000014147C282828FC50505035
:1013B000103854503018141454382454582810102D
:1013C000283454483048484830544848483410106D
:1013D0000000000000000000081010202020202045
:1013E000201020101008080808080810000000103D
:1013F000107C1028000000000010107C101000006D
:101400000000000000000000101000000000007C40
:1014100000000000000000000000000010100404A4
:1014200008081010202040403844444444444444B8
:1014300044381030101010101010101038444404AC
:1014400008102040407C38444404180404444438C4
:10145000081818282848487C08087C4040407844F0
:1014600004044438384440407844444444387C447C
:1014700044040808101010103844444438444444CC
:10148000443838444444443C0404443800001010B8
:1014900000000010100000001010000000101020CC
:1014A00000000408304030080400000000007C0008
:1014B0007C00000000004020180418204000384440
:1014C000440408101000101018244C545454545C58
:1014D00040381010102828287C4444447844444460
:1014E000784444444478384444404040404444387C
:1014F000784444444444444444787C4040407C40E4
:101500004040407C7C40404078404040404038442F
:1015100044405C4444444C34444444447C44444447
:101520004444101010101010101010100808080873
:1015300008080848483044484850605050484844DB
:101540004040404040404040407C44446C6C6C54BF
:10155000545444444444646454544C4C44443844C7
:1015600044444444444444387844444444784040E7
:101570004040384444444444444454387844444407
:1015800044784844444438444420100804444438CF
:101590007C101010101010101010444444444444A7
:1015A00044444438444444442828281010105454D7
:1015B00054545454542828284444282810102828C7
:1015C0004444444444282828101010107C0408087F
:1015D00010102020407C302020202020202020209F
:1015E000545454FC5454542828283010101010100F
:1015F0001010101030480000000000000000000033
:1016000000000000000000002010000000000000AA
:1016100000000000003048384848483440404078D6
:101620004444444444780000003844404040443836
:101630000404043C44444444443C00000038444412
:101640007C404438102020702020202020200000E2
:10165000003C4444443C04444040407844444444B6
:101660004444101000101010101010101010001032
:101670001010101010104040404448506050484432
:1016800000101010101010101010000000685454BA
:1016900054545454000000784444444444440000EA
:1016A00000384444444444380000007844444444EE
:1016B00078400000003C444444443C040000002CBA
:1016C00030202020202000000038444038044438D6
:1016D00000202078202020202018000000444444CE
:1016E0004444443C000000444444282810100000B6
:1016F000005454545438282800000044442810282A
:101700004444000000444444282810100000007C99
:1017100004081020407C08101010106010101010E9
:101720001010101010101010101040202020201841
:101730002020202000000000003448000000007835
:10174000484848484848487880B53C48016851F4C2
:10175000700101603A49086850F0010008600020FB
:10176000384A10600A68384802400A603748384AE8
:101770001060086830F48020086000203549086057
:1017800000F005F85FF000603349086001BD82B0E9
:1017900000200190002000902949086850F4803012
:1017A0000860086810F4003000900198401C019017
:1017B0000098002803D10198B0F5A04FF1D1086836
:1017C000800302D50120009001E0002000900098E5
:1017D00001282FD12148026852F08052026020482F
:1017E000026852F4404202601648026802600268D1
:1017F00052F400420260026852F4A0520260194A98
:10180000134B1A600A6852F080720A600A689201EB
:10181000FCD540F20571144A1160016889088900FD
:101820000160016851F002010160016811F00C01D2
:101830000829FAD102B070470000000088ED00E0EE
:101840000038024008380240FFFFF6FE1030002446
:10185000043802400C38024008ED00E040380240F5
:101860000070004019544007003C024010B5074981
:1018700079441831064C7C44163404E00A68081D8B
:10188000114488470146A142F8D110BD2C00000048
:10189000380000004EF68851CEF20001086840F48E
:1018A00070000860BFF34F8FBFF36F8F4FF0017070
:1018B000E1EE100A7047000037F2FFFF540200000B
:1018C000180000000000002000F00DF8002801D0F2
:1018D000FFF7CCFFAFF300800020AFF30080FEF7EE
:1018E00053FC00F002F80120704700F001B800003E
:1018F0000746384600F002F8FBE7000080B5AFF37A
:101900000080024A11001820ABBEFBE7260002004F
:101910000548014603B4684680F30988AFF30080A8
:10192000FFF7B8FFFFF7D0FFA5EDF5FE553A3020E1
:101930002C443A30202C4C3A30202C523A300000C3
:101940005354415455533A28582C5929000000004B
:10195000014880470148004749170008111900084D
:101960004D617A652052756E6E6572005245534521
:101970005428535730290000535441525428535788
:101980003729000028302C302900000028342C3062
:101990002900000028302C342900000028342C3481
:1019A00029000000FFF7FEBFFFF7FEBFFFF7FEBFF5
:1019B000FFF7FEBFFFF7FEBFFFF7FEBFFFF7FEBF5B
:1019C000FFF7FEBFFFF7FEBFFFF7FEBFFFF7FEBF4B
:1019D000FFF7FEBFFFF7FEBFFFF7FEBFFFF7FEBF3B
:1019E000FFF7FEBFFFF7FEBFFFF7FEBFFFF7FEBF2B
:1019F000FFF7FEBFFFF7FEBFFFF7FEBFFFF7FEBF1B
:101A0000FFF7FEBFFFF7FEBFFFF7FEBFFFF7FEBF0A
:101A1000FFF7FEBFFFF7FEBFFFF7FEBFFFF7FEBFFA
:101A2000FFF7FEBFFFF7FEBFFFF7FEBFFFF7FEBFEA
:101A3000FFF7FEBFFFF7FEBFFFF7FEBFFFF7FEBFDA
:101A4000FFF7FEBFFFF7FEBFFFF7FEBFFFF7FEBFCA
:101A5000FFF7FEBFFFF7FEBFFFF7FEBFFFF7FEBFBA
:101A6000FFF7FEBFFFF7FEBFFFF7FEBFFFF7FEBFAA
:101A7000FFF7FEBFFFF7FEBFFFF7FEBFFFF7FEBF9A
:101A8000FFF7FEBFFFF7FEBFFFF7FEBFFFF7FEBF8A
:101A9000FFF7FEBFFFF7FEBFFFF7FEBFFFF7FEBF7A
:101AA000FFF7FEBFFFF7FEBFFFF7FEBFFFF7FEBF6A
:101AB000FFF7FEBFFFF7FEBFFFF7FEBFFFF7FEBF5A
:101AC000FFF7FEBFFFF7FEBFFFF7FEBFFFF7FEBF4A
:101AD000FFF7FEBFFFF7FEBFFFF7FEBFFFF7FEBF3A
:101AE000FFF7FEBFFFF7FEBFFFF7FEBFFFF7FEBF2A
:101AF000FFF7FEBFFFF7FEBFFFF7FEBFFFF7FEBF1A
:101B0000FFF7FEBFFFF7FEBFFFF7FEBFFFF7FEBF09
:0C1B1000084812000806000A000AE7005E
:0400000508001911C5
:00000001FF
